{
  "contractName": "ProductAuth",
  "abi": [
    {
      "inputs": [],
      "stateMutability": "nonpayable",
      "type": "constructor"
    },
    {
      "inputs": [],
      "name": "owner",
      "outputs": [
        {
          "internalType": "address",
          "name": "",
          "type": "address"
        }
      ],
      "stateMutability": "view",
      "type": "function",
      "constant": true
    },
    {
      "inputs": [
        {
          "internalType": "bytes32",
          "name": "hash",
          "type": "bytes32"
        }
      ],
      "name": "addProductHash",
      "outputs": [],
      "stateMutability": "nonpayable",
      "type": "function"
    },
    {
      "inputs": [
        {
          "internalType": "bytes32",
          "name": "hash",
          "type": "bytes32"
        }
      ],
      "name": "verifyProduct",
      "outputs": [
        {
          "internalType": "bool",
          "name": "",
          "type": "bool"
        }
      ],
      "stateMutability": "view",
      "type": "function",
      "constant": true
    },
    {
      "inputs": [
        {
          "internalType": "bytes32[]",
          "name": "hashes",
          "type": "bytes32[]"
        }
      ],
      "name": "bulkAddHashes",
      "outputs": [],
      "stateMutability": "nonpayable",
      "type": "function"
    }
  ],
  "bytecode": "0x608060405234801561001057600080fd5b5033600160006101000a81548173ffffffffffffffffffffffffffffffffffffffff021916908373ffffffffffffffffffffffffffffffffffffffff16021790555061067f806100616000396000f3fe608060405234801561001057600080fd5b506004361061004c5760003560e01c80634bd41867146100515780638da5cb5b1461006d578063af6c3ecb1461008b578063eda45965146100a7575b600080fd5b61006b600480360381019061006691906103ad565b6100d7565b005b6100756101f5565b6040516100829190610475565b60405180910390f35b6100a560048036038101906100a091906103ee565b61021b565b005b6100c160048036038101906100bc91906103ee565b6102d9565b6040516100ce9190610490565b60405180910390f35b600160009054906101000a900473ffffffffffffffffffffffffffffffffffffffff1673ffffffffffffffffffffffffffffffffffffffff163373ffffffffffffffffffffffffffffffffffffffff1614610167576040517f08c379a000000000000000000000000000000000000000000000000000000000815260040161015e906104ab565b60405180910390fd5b60005b81518110156101f15760016000808484815181106101b1577f4e487b7100000000000000000000000000000000000000000000000000000000600052603260045260246000fd5b6020026020010151815260200190815260200160002060006101000a81548160ff02191690831515021790555080806101e99061058b565b91505061016a565b5050565b600160009054906101000a900473ffffffffffffffffffffffffffffffffffffffff1681565b600160009054906101000a900473ffffffffffffffffffffffffffffffffffffffff1673ffffffffffffffffffffffffffffffffffffffff163373ffffffffffffffffffffffffffffffffffffffff16146102ab576040517f08c379a00000000000000000000000000000000000000000000000000000000081526004016102a2906104ab565b60405180910390fd5b600160008083815260200190815260200160002060006101000a81548160ff02191690831515021790555050565b600080600083815260200190815260200160002060009054906101000a900460ff169050919050565b6000610315610310846104fc565b6104cb565b9050808382526020820190508285602086028201111561033457600080fd5b60005b85811015610364578161034a8882610398565b845260208401935060208301925050600181019050610337565b5050509392505050565b600082601f83011261037f57600080fd5b813561038f848260208601610302565b91505092915050565b6000813590506103a781610632565b92915050565b6000602082840312156103bf57600080fd5b600082013567ffffffffffffffff8111156103d957600080fd5b6103e58482850161036e565b91505092915050565b60006020828403121561040057600080fd5b600061040e84828501610398565b91505092915050565b61042081610539565b82525050565b61042f8161054b565b82525050565b6000610442600e83610528565b91507f4e6f7420617574686f72697a65640000000000000000000000000000000000006000830152602082019050919050565b600060208201905061048a6000830184610417565b92915050565b60006020820190506104a56000830184610426565b92915050565b600060208201905081810360008301526104c481610435565b9050919050565b6000604051905081810181811067ffffffffffffffff821117156104f2576104f1610603565b5b8060405250919050565b600067ffffffffffffffff82111561051757610516610603565b5b602082029050602081019050919050565b600082825260208201905092915050565b600061054482610561565b9050919050565b60008115159050919050565b6000819050919050565b600073ffffffffffffffffffffffffffffffffffffffff82169050919050565b6000819050919050565b600061059682610581565b91507fffffffffffffffffffffffffffffffffffffffffffffffffffffffffffffffff8214156105c9576105c86105d4565b5b600182019050919050565b7f4e487b7100000000000000000000000000000000000000000000000000000000600052601160045260246000fd5b7f4e487b7100000000000000000000000000000000000000000000000000000000600052604160045260246000fd5b61063b81610557565b811461064657600080fd5b5056fea26469706673582212205d4f5890040123204b067f9618f855adb1b7a70b972e863a68a315ce6597a6de64736f6c63430008000033",
  "immutableReferences": {},
  "source": "pragma solidity ^0.8.0;\r\n\r\ncontract ProductAuth {\r\n    mapping(bytes32 => bool) private productHashes;\r\n    address public owner;\r\n\r\n    constructor() {\r\n        owner = msg.sender;\r\n    }\r\n\r\n    modifier onlyOwner() {\r\n        require(msg.sender == owner, \"Not authorized\");\r\n        _;\r\n    }\r\n\r\n    function addProductHash(bytes32 hash) public onlyOwner {\r\n        productHashes[hash] = true;\r\n    }\r\n\r\n    function verifyProduct(bytes32 hash) public view returns (bool) {\r\n        return productHashes[hash];\r\n    }\r\n\r\n    function bulkAddHashes(bytes32[] memory hashes) public onlyOwner {\r\n        for (uint i = 0; i < hashes.length; i++) {\r\n            productHashes[hashes[i]] = true;\r\n        }\r\n    }\r\n}",
  "sourcePath": "C:\\Users\\Nithin ramakrishnan\\C_Prog\\product-authenticator\\contracts\\ProductAuth.sol",
  "compiler": {
    "name": "solc",
    "version": "0.8.0+commit.c7dfd78e.Emscripten.clang"
  },
  "schemaVersion": "3.4.16",
  "updatedAt": "2025-04-06T06:01:44.554Z",
  "networkType": "ethereum",
  "devdoc": {
    "kind": "dev",
    "methods": {},
    "version": 1
  },
  "userdoc": {
    "kind": "user",
    "methods": {},
    "version": 1
  }
}