{
  "contractName": "ProductAuth",
  "abi": [
    {
      "inputs": [],
      "stateMutability": "nonpayable",
      "type": "constructor"
    },
    {
      "anonymous": false,
      "inputs": [
        {
          "indexed": true,
          "internalType": "bytes32",
          "name": "productHash",
          "type": "bytes32"
        },
        {
          "indexed": true,
          "internalType": "address",
          "name": "owner",
          "type": "address"
        }
      ],
      "name": "ProductAdded",
      "type": "event"
    },
    {
      "anonymous": false,
      "inputs": [
        {
          "indexed": true,
          "internalType": "bytes32",
          "name": "productHash",
          "type": "bytes32"
        },
        {
          "indexed": false,
          "internalType": "bool",
          "name": "isVerified",
          "type": "bool"
        }
      ],
      "name": "ProductVerified",
      "type": "event"
    },
    {
      "anonymous": false,
      "inputs": [
        {
          "indexed": true,
          "internalType": "address",
          "name": "user",
          "type": "address"
        },
        {
          "indexed": false,
          "internalType": "enum ProductAuth.Role",
          "name": "role",
          "type": "uint8"
        }
      ],
      "name": "RoleAssigned",
      "type": "event"
    },
    {
      "inputs": [],
      "name": "owner",
      "outputs": [
        {
          "internalType": "address",
          "name": "",
          "type": "address"
        }
      ],
      "stateMutability": "view",
      "type": "function",
      "constant": true
    },
    {
      "inputs": [
        {
          "internalType": "address",
          "name": "",
          "type": "address"
        }
      ],
      "name": "userRoles",
      "outputs": [
        {
          "internalType": "enum ProductAuth.Role",
          "name": "",
          "type": "uint8"
        }
      ],
      "stateMutability": "view",
      "type": "function",
      "constant": true
    },
    {
      "inputs": [
        {
          "internalType": "bytes32",
          "name": "hash",
          "type": "bytes32"
        }
      ],
      "name": "addProductHash",
      "outputs": [],
      "stateMutability": "nonpayable",
      "type": "function"
    },
    {
      "inputs": [
        {
          "internalType": "bytes32",
          "name": "hash",
          "type": "bytes32"
        }
      ],
      "name": "verifyProduct",
      "outputs": [
        {
          "internalType": "bool",
          "name": "",
          "type": "bool"
        }
      ],
      "stateMutability": "view",
      "type": "function",
      "constant": true
    },
    {
      "inputs": [
        {
          "internalType": "bytes32[]",
          "name": "hashes",
          "type": "bytes32[]"
        }
      ],
      "name": "bulkAddHashes",
      "outputs": [],
      "stateMutability": "nonpayable",
      "type": "function"
    },
    {
      "inputs": [
        {
          "internalType": "address",
          "name": "user",
          "type": "address"
        },
        {
          "internalType": "enum ProductAuth.Role",
          "name": "role",
          "type": "uint8"
        }
      ],
      "name": "assignRole",
      "outputs": [],
      "stateMutability": "nonpayable",
      "type": "function"
    },
    {
      "inputs": [
        {
          "internalType": "bytes32",
          "name": "productHash",
          "type": "bytes32"
        },
        {
          "internalType": "address",
          "name": "newOwner",
          "type": "address"
        }
      ],
      "name": "transferProductOwnership",
      "outputs": [],
      "stateMutability": "nonpayable",
      "type": "function"
    },
    {
      "inputs": [
        {
          "internalType": "bytes32",
          "name": "productHash",
          "type": "bytes32"
        }
      ],
      "name": "getProductOwner",
      "outputs": [
        {
          "internalType": "address",
          "name": "",
          "type": "address"
        }
      ],
      "stateMutability": "view",
      "type": "function",
      "constant": true
    },
    {
      "inputs": [
        {
          "internalType": "bytes32",
          "name": "productHash",
          "type": "bytes32"
        }
      ],
      "name": "getProductAdditionTime",
      "outputs": [
        {
          "internalType": "uint256",
          "name": "",
          "type": "uint256"
        }
      ],
      "stateMutability": "view",
      "type": "function",
      "constant": true
    },
    {
      "inputs": [
        {
          "internalType": "bytes32",
          "name": "productHash",
          "type": "bytes32"
        }
      ],
      "name": "getProductHistory",
      "outputs": [
        {
          "internalType": "uint256[]",
          "name": "",
          "type": "uint256[]"
        }
      ],
      "stateMutability": "view",
      "type": "function",
      "constant": true
    },
    {
      "inputs": [
        {
          "internalType": "bytes32",
          "name": "productHash",
          "type": "bytes32"
        }
      ],
      "name": "verifyProductOwnership",
      "outputs": [
        {
          "internalType": "bool",
          "name": "",
          "type": "bool"
        }
      ],
      "stateMutability": "view",
      "type": "function",
      "constant": true
    },
    {
      "inputs": [
        {
          "internalType": "bytes32",
          "name": "productHash",
          "type": "bytes32"
        },
        {
          "internalType": "bool",
          "name": "status",
          "type": "bool"
        }
      ],
      "name": "updateProductVerificationStatus",
      "outputs": [],
      "stateMutability": "nonpayable",
      "type": "function"
    },
    {
      "inputs": [],
      "name": "isAdmin",
      "outputs": [
        {
          "internalType": "bool",
          "name": "",
          "type": "bool"
        }
      ],
      "stateMutability": "view",
      "type": "function",
      "constant": true
    },
    {
      "inputs": [],
      "name": "isManager",
      "outputs": [
        {
          "internalType": "bool",
          "name": "",
          "type": "bool"
        }
      ],
      "stateMutability": "view",
      "type": "function",
      "constant": true
    },
    {
      "inputs": [],
      "name": "isUser",
      "outputs": [
        {
          "internalType": "bool",
          "name": "",
          "type": "bool"
        }
      ],
      "stateMutability": "view",
      "type": "function",
      "constant": true
    },
    {
      "inputs": [
        {
          "internalType": "address",
          "name": "user",
          "type": "address"
        }
      ],
      "name": "getUserRole",
      "outputs": [
        {
          "internalType": "enum ProductAuth.Role",
          "name": "",
          "type": "uint8"
        }
      ],
      "stateMutability": "view",
      "type": "function",
      "constant": true
    },
    {
      "inputs": [
        {
          "internalType": "bytes32",
          "name": "productHash",
          "type": "bytes32"
        }
      ],
      "name": "removeProduct",
      "outputs": [],
      "stateMutability": "nonpayable",
      "type": "function"
    },
    {
      "inputs": [
        {
          "internalType": "address",
          "name": "user",
          "type": "address"
        }
      ],
      "name": "getAllProductsForUser",
      "outputs": [
        {
          "internalType": "bytes32[]",
          "name": "",
          "type": "bytes32[]"
        }
      ],
      "stateMutability": "view",
      "type": "function",
      "constant": true
    },
    {
      "inputs": [],
      "name": "getTotalProductCount",
      "outputs": [
        {
          "internalType": "uint256",
          "name": "",
          "type": "uint256"
        }
      ],
      "stateMutability": "view",
      "type": "function",
      "constant": true
    },
    {
      "inputs": [],
      "name": "getAllProductHashes",
      "outputs": [
        {
          "internalType": "bytes32[]",
          "name": "",
          "type": "bytes32[]"
        }
      ],
      "stateMutability": "view",
      "type": "function",
      "constant": true
    }
  ],
  "bytecode": "0x608060405234801561001057600080fd5b5033600560006101000a81548173ffffffffffffffffffffffffffffffffffffffff021916908373ffffffffffffffffffffffffffffffffffffffff160217905550600060066000600560009054906101000a900473ffffffffffffffffffffffffffffffffffffffff1673ffffffffffffffffffffffffffffffffffffffff1673ffffffffffffffffffffffffffffffffffffffff16815260200190815260200160002060006101000a81548160ff021916908360028111156100fd577f4e487b7100000000000000000000000000000000000000000000000000000000600052602160045260246000fd5b0217905550611f5f806101116000396000f3fe608060405234801561001057600080fd5b506004361061012c5760003560e01c80638da5cb5b116100ad578063c56a3e8811610071578063c56a3e8814610355578063cb61313e14610373578063e43f30a41461038f578063ec249050146103bf578063eda45965146103dd5761012c565b80638da5cb5b146102b1578063a26ea496146102cf578063af6c3ecb146102eb578063b6db75a014610307578063bb37dc50146103255761012c565b80634c22c119116100f45780634c22c119146101e757806362da786f14610205578063630a195b1461023557806374d5e100146102515780637f285666146102815761012c565b8063240f7e4c1461013157806327820851146101615780633c382f1314610191578063448668d8146101ad5780634bd41867146101cb575b600080fd5b61014b60048036038101906101469190611862565b61040d565b6040516101589190611b8a565b60405180910390f35b61017b60048036038101906101769190611862565b6106d5565b6040516101889190611be9565b60405180910390f35b6101ab60048036038101906101a6919061196d565b61072b565b005b6101b5610821565b6040516101c29190611b8a565b60405180910390f35b6101e560048036038101906101e091906118c7565b610879565b005b6101ef610be8565b6040516101fc9190611bce565b60405180910390f35b61021f600480360381019061021a9190611908565b610cae565b60405161022c9190611c44565b60405180910390f35b61024f600480360381019061024a919061188b565b610ccb565b005b61026b60048036038101906102669190611862565b610e3a565b6040516102789190611be9565b60405180910390f35b61029b60048036038101906102969190611908565b610e5a565b6040516102a89190611bce565b60405180910390f35b6102b9610f26565b6040516102c69190611b6f565b60405180910390f35b6102e960048036038101906102e49190611908565b610f4c565b005b61030560048036038101906103009190611908565b611207565b005b61030f6113d6565b60405161031c9190611bce565b60405180910390f35b61033f600480360381019061033a9190611908565b61149c565b60405161034c9190611b6f565b60405180910390f35b61035d6114d9565b60405161036a9190611bce565b60405180910390f35b61038d60048036038101906103889190611931565b6115a0565b005b6103a960048036038101906103a49190611908565b611699565b6040516103b69190611bac565b60405180910390f35b6103c7611704565b6040516103d49190611c44565b60405180910390f35b6103f760048036038101906103f29190611908565b611711565b6040516104049190611bce565b60405180910390f35b60606000805b6004805490508110156104ed578373ffffffffffffffffffffffffffffffffffffffff166001600060048481548110610475577f4e487b7100000000000000000000000000000000000000000000000000000000600052603260045260246000fd5b9060005260206000200154815260200190815260200160002060009054906101000a900473ffffffffffffffffffffffffffffffffffffffff1673ffffffffffffffffffffffffffffffffffffffff1614156104da5781806104d690611dea565b9250505b80806104e590611dea565b915050610413565b5060008167ffffffffffffffff811115610530577f4e487b7100000000000000000000000000000000000000000000000000000000600052604160045260246000fd5b60405190808252806020026020018201604052801561055e5781602001602082028036833780820191505090505b5090506000805b6004805490508110156106c9578573ffffffffffffffffffffffffffffffffffffffff1660016000600484815481106105c7577f4e487b7100000000000000000000000000000000000000000000000000000000600052603260045260246000fd5b9060005260206000200154815260200190815260200160002060009054906101000a900473ffffffffffffffffffffffffffffffffffffffff1673ffffffffffffffffffffffffffffffffffffffff1614156106b65760048181548110610657577f4e487b7100000000000000000000000000000000000000000000000000000000600052603260045260246000fd5b906000526020600020015483838151811061069b577f4e487b7100000000000000000000000000000000000000000000000000000000600052603260045260246000fd5b60200260200101818152505081806106b290611dea565b9250505b80806106c190611dea565b915050610565565b50819350505050919050565b6000600660008373ffffffffffffffffffffffffffffffffffffffff1673ffffffffffffffffffffffffffffffffffffffff16815260200190815260200160002060009054906101000a900460ff169050919050565b600560009054906101000a900473ffffffffffffffffffffffffffffffffffffffff1673ffffffffffffffffffffffffffffffffffffffff163373ffffffffffffffffffffffffffffffffffffffff16146107bb576040517f08c379a00000000000000000000000000000000000000000000000000000000081526004016107b290611c24565b60405180910390fd5b8060008084815260200190815260200160002060006101000a81548160ff021916908315150217905550817f10fc83f625b4e0701bdb58f90d6a1a1991fd60883dd14e690e3890ae01b9ba21826040516108159190611bce565b60405180910390a25050565b6060600480548060200260200160405190810160405280929190818152602001828054801561086f57602002820191906000526020600020905b81548152602001906001019080831161085b575b5050505050905090565b600560009054906101000a900473ffffffffffffffffffffffffffffffffffffffff1673ffffffffffffffffffffffffffffffffffffffff163373ffffffffffffffffffffffffffffffffffffffff1614610909576040517f08c379a000000000000000000000000000000000000000000000000000000000815260040161090090611c24565b60405180910390fd5b60005b8151811015610be4576001600080848481518110610953577f4e487b7100000000000000000000000000000000000000000000000000000000600052603260045260246000fd5b6020026020010151815260200190815260200160002060006101000a81548160ff02191690831515021790555033600160008484815181106109be577f4e487b7100000000000000000000000000000000000000000000000000000000600052603260045260246000fd5b6020026020010151815260200190815260200160002060006101000a81548173ffffffffffffffffffffffffffffffffffffffff021916908373ffffffffffffffffffffffffffffffffffffffff1602179055504260026000848481518110610a50577f4e487b7100000000000000000000000000000000000000000000000000000000600052603260045260246000fd5b602002602001015181526020019081526020016000208190555060036000838381518110610aa7577f4e487b7100000000000000000000000000000000000000000000000000000000600052603260045260246000fd5b602002602001015181526020019081526020016000204290806001815401808255809150506001900390600052602060002001600090919091909150556004828281518110610b1f577f4e487b7100000000000000000000000000000000000000000000000000000000600052603260045260246000fd5b602002602001015190806001815401808255809150506001900390600052602060002001600090919091909150553373ffffffffffffffffffffffffffffffffffffffff16828281518110610b9d577f4e487b7100000000000000000000000000000000000000000000000000000000600052603260045260246000fd5b60200260200101517f1b5a86e8aa6fd9fa3e28beb6a530dd4ef95fdde98e2e304c7723182eb11b496860405160405180910390a38080610bdc90611dea565b91505061090c565b5050565b6000600280811115610c23577f4e487b7100000000000000000000000000000000000000000000000000000000600052602160045260246000fd5b600660003373ffffffffffffffffffffffffffffffffffffffff1673ffffffffffffffffffffffffffffffffffffffff16815260200190815260200160002060009054906101000a900460ff166002811115610ca8577f4e487b7100000000000000000000000000000000000000000000000000000000600052602160045260246000fd5b14905090565b600060026000838152602001908152602001600020549050919050565b600560009054906101000a900473ffffffffffffffffffffffffffffffffffffffff1673ffffffffffffffffffffffffffffffffffffffff163373ffffffffffffffffffffffffffffffffffffffff1614610d5b576040517f08c379a0000000000000000000000000000000000000000000000000000000008152600401610d5290611c24565b60405180910390fd5b80600660008473ffffffffffffffffffffffffffffffffffffffff1673ffffffffffffffffffffffffffffffffffffffff16815260200190815260200160002060006101000a81548160ff02191690836002811115610de3577f4e487b7100000000000000000000000000000000000000000000000000000000600052602160045260246000fd5b02179055508173ffffffffffffffffffffffffffffffffffffffff167f4ac36fa53f167ceb85964be512e01de2a3b8bdb9862f917da079deeeff689b3882604051610e2e9190611be9565b60405180910390a25050565b60066020528060005260406000206000915054906101000a900460ff1681565b6000813373ffffffffffffffffffffffffffffffffffffffff166001600083815260200190815260200160002060009054906101000a900473ffffffffffffffffffffffffffffffffffffffff1673ffffffffffffffffffffffffffffffffffffffff1614610efe576040517f08c379a0000000000000000000000000000000000000000000000000000000008152600401610ef590611c04565b60405180910390fd5b60008084815260200190815260200160002060009054906101000a900460ff16915050919050565b600560009054906101000a900473ffffffffffffffffffffffffffffffffffffffff1681565b600560009054906101000a900473ffffffffffffffffffffffffffffffffffffffff1673ffffffffffffffffffffffffffffffffffffffff163373ffffffffffffffffffffffffffffffffffffffff1614610fdc576040517f08c379a0000000000000000000000000000000000000000000000000000000008152600401610fd390611c24565b60405180910390fd5b60008082815260200190815260200160002060006101000a81549060ff02191690556001600082815260200190815260200160002060006101000a81549073ffffffffffffffffffffffffffffffffffffffff0219169055600260008281526020019081526020016000206000905560036000828152602001908152602001600020600061106a919061173a565b60005b6004805490508110156111ca5781600482815481106110b5577f4e487b7100000000000000000000000000000000000000000000000000000000600052603260045260246000fd5b906000526020600020015414156111b757600460016004805490506110da9190611d3f565b81548110611111577f4e487b7100000000000000000000000000000000000000000000000000000000600052603260045260246000fd5b906000526020600020015460048281548110611156577f4e487b7100000000000000000000000000000000000000000000000000000000600052603260045260246000fd5b9060005260206000200181905550600480548061119c577f4e487b7100000000000000000000000000000000000000000000000000000000600052603160045260246000fd5b600190038181906000526020600020016000905590556111ca565b80806111c290611dea565b91505061106d565b50807f10fc83f625b4e0701bdb58f90d6a1a1991fd60883dd14e690e3890ae01b9ba2160006040516111fc9190611bce565b60405180910390a250565b600560009054906101000a900473ffffffffffffffffffffffffffffffffffffffff1673ffffffffffffffffffffffffffffffffffffffff163373ffffffffffffffffffffffffffffffffffffffff1614611297576040517f08c379a000000000000000000000000000000000000000000000000000000000815260040161128e90611c24565b60405180910390fd5b600160008083815260200190815260200160002060006101000a81548160ff021916908315150217905550336001600083815260200190815260200160002060006101000a81548173ffffffffffffffffffffffffffffffffffffffff021916908373ffffffffffffffffffffffffffffffffffffffff1602179055504260026000838152602001908152602001600020819055506003600082815260200190815260200160002042908060018154018082558091505060019003906000526020600020016000909190919091505560048190806001815401808255809150506001900390600052602060002001600090919091909150553373ffffffffffffffffffffffffffffffffffffffff16817f1b5a86e8aa6fd9fa3e28beb6a530dd4ef95fdde98e2e304c7723182eb11b496860405160405180910390a350565b6000806002811115611411577f4e487b7100000000000000000000000000000000000000000000000000000000600052602160045260246000fd5b600660003373ffffffffffffffffffffffffffffffffffffffff1673ffffffffffffffffffffffffffffffffffffffff16815260200190815260200160002060009054906101000a900460ff166002811115611496577f4e487b7100000000000000000000000000000000000000000000000000000000600052602160045260246000fd5b14905090565b60006001600083815260200190815260200160002060009054906101000a900473ffffffffffffffffffffffffffffffffffffffff169050919050565b600060016002811115611515577f4e487b7100000000000000000000000000000000000000000000000000000000600052602160045260246000fd5b600660003373ffffffffffffffffffffffffffffffffffffffff1673ffffffffffffffffffffffffffffffffffffffff16815260200190815260200160002060009054906101000a900460ff16600281111561159a577f4e487b7100000000000000000000000000000000000000000000000000000000600052602160045260246000fd5b14905090565b813373ffffffffffffffffffffffffffffffffffffffff166001600083815260200190815260200160002060009054906101000a900473ffffffffffffffffffffffffffffffffffffffff1673ffffffffffffffffffffffffffffffffffffffff1614611642576040517f08c379a000000000000000000000000000000000000000000000000000000000815260040161163990611c04565b60405180910390fd5b816001600085815260200190815260200160002060006101000a81548173ffffffffffffffffffffffffffffffffffffffff021916908373ffffffffffffffffffffffffffffffffffffffff160217905550505050565b6060600360008381526020019081526020016000208054806020026020016040519081016040528092919081815260200182805480156116f857602002820191906000526020600020905b8154815260200190600101908083116116e4575b50505050509050919050565b6000600480549050905090565b600080600083815260200190815260200160002060009054906101000a900460ff169050919050565b5080546000825590600052602060002090810190611758919061175b565b50565b5b8082111561177457600081600090555060010161175c565b5090565b600061178b61178684611c90565b611c5f565b905080838252602082019050828560208602820111156117aa57600080fd5b60005b858110156117da57816117c08882611838565b8452602084019350602083019250506001810190506117ad565b5050509392505050565b6000813590506117f381611ed4565b92915050565b600082601f83011261180a57600080fd5b813561181a848260208601611778565b91505092915050565b60008135905061183281611eeb565b92915050565b60008135905061184781611f02565b92915050565b60008135905061185c81611f19565b92915050565b60006020828403121561187457600080fd5b6000611882848285016117e4565b91505092915050565b6000806040838503121561189e57600080fd5b60006118ac858286016117e4565b92505060206118bd8582860161184d565b9150509250929050565b6000602082840312156118d957600080fd5b600082013567ffffffffffffffff8111156118f357600080fd5b6118ff848285016117f9565b91505092915050565b60006020828403121561191a57600080fd5b600061192884828501611838565b91505092915050565b6000806040838503121561194457600080fd5b600061195285828601611838565b9250506020611963858286016117e4565b9150509250929050565b6000806040838503121561198057600080fd5b600061198e85828601611838565b925050602061199f85828601611823565b9150509250929050565b60006119b58383611ab3565b60208301905092915050565b60006119cd8383611b51565b60208301905092915050565b6119e281611d73565b82525050565b60006119f382611cdc565b6119fd8185611d0c565b9350611a0883611cbc565b8060005b83811015611a39578151611a2088826119a9565b9750611a2b83611cf2565b925050600181019050611a0c565b5085935050505092915050565b6000611a5182611ce7565b611a5b8185611d1d565b9350611a6683611ccc565b8060005b83811015611a97578151611a7e88826119c1565b9750611a8983611cff565b925050600181019050611a6a565b5085935050505092915050565b611aad81611d85565b82525050565b611abc81611d91565b82525050565b611acb81611dd8565b82525050565b6000611ade601d83611d2e565b91507f4e6f7420746865206f776e6572206f6620746869732070726f647563740000006000830152602082019050919050565b6000611b1e600e83611d2e565b91507f4e6f7420617574686f72697a65640000000000000000000000000000000000006000830152602082019050919050565b611b5a81611dce565b82525050565b611b6981611dce565b82525050565b6000602082019050611b8460008301846119d9565b92915050565b60006020820190508181036000830152611ba481846119e8565b905092915050565b60006020820190508181036000830152611bc68184611a46565b905092915050565b6000602082019050611be36000830184611aa4565b92915050565b6000602082019050611bfe6000830184611ac2565b92915050565b60006020820190508181036000830152611c1d81611ad1565b9050919050565b60006020820190508181036000830152611c3d81611b11565b9050919050565b6000602082019050611c596000830184611b60565b92915050565b6000604051905081810181811067ffffffffffffffff82111715611c8657611c85611e91565b5b8060405250919050565b600067ffffffffffffffff821115611cab57611caa611e91565b5b602082029050602081019050919050565b6000819050602082019050919050565b6000819050602082019050919050565b600081519050919050565b600081519050919050565b6000602082019050919050565b6000602082019050919050565b600082825260208201905092915050565b600082825260208201905092915050565b600082825260208201905092915050565b6000611d4a82611dce565b9150611d5583611dce565b925082821015611d6857611d67611e33565b5b828203905092915050565b6000611d7e82611dae565b9050919050565b60008115159050919050565b6000819050919050565b6000819050611da982611ec0565b919050565b600073ffffffffffffffffffffffffffffffffffffffff82169050919050565b6000819050919050565b6000611de382611d9b565b9050919050565b6000611df582611dce565b91507fffffffffffffffffffffffffffffffffffffffffffffffffffffffffffffffff821415611e2857611e27611e33565b5b600182019050919050565b7f4e487b7100000000000000000000000000000000000000000000000000000000600052601160045260246000fd5b7f4e487b7100000000000000000000000000000000000000000000000000000000600052602160045260246000fd5b7f4e487b7100000000000000000000000000000000000000000000000000000000600052604160045260246000fd5b60038110611ed157611ed0611e62565b5b50565b611edd81611d73565b8114611ee857600080fd5b50565b611ef481611d85565b8114611eff57600080fd5b50565b611f0b81611d91565b8114611f1657600080fd5b50565b60038110611f2657600080fd5b5056fea2646970667358221220bb2fafbcd1754ad68366974145082aebad36cd5f5a92d3570475aa899d19302a64736f6c63430008000033",
  "immutableReferences": {},
  "source": "pragma solidity ^0.8.0;\r\n\r\ncontract ProductAuth {\r\n    // Mapping for product hashes\r\n    mapping(bytes32 => bool) private productHashes;\r\n\r\n    // Mapping to track the owners of the products\r\n    mapping(bytes32 => address) private productOwners;\r\n\r\n    // Mapping to track the product's addition time for history\r\n    mapping(bytes32 => uint256) private productAdditionTime;\r\n\r\n    // Mapping to track the product's history of additions (timestamps)\r\n    mapping(bytes32 => uint256[]) private productHistory;\r\n\r\n    // Array to store all product hashes\r\n    bytes32[] private allProductHashes;\r\n\r\n    // Address of the contract owner\r\n    address public owner;\r\n\r\n    // Access control roles\r\n    enum Role { Admin, Manager, User }\r\n    mapping(address => Role) public userRoles;\r\n\r\n    // Event declarations for logging\r\n    event ProductAdded(bytes32 indexed productHash, address indexed owner);\r\n    event ProductVerified(bytes32 indexed productHash, bool isVerified);\r\n    event RoleAssigned(address indexed user, Role role);\r\n\r\n    // Constructor to initialize the owner\r\n    constructor() {\r\n        owner = msg.sender;\r\n        userRoles[owner] = Role.Admin;\r\n    }\r\n\r\n    // Modifier for restricting access to the contract owner\r\n    modifier onlyOwner() {\r\n        require(msg.sender == owner, \"Not authorized\");\r\n        _;\r\n    }\r\n\r\n    // Modifier to allow only admins or managers to perform specific actions\r\n    modifier onlyAdminOrManager() {\r\n        require(\r\n            msg.sender == owner || userRoles[msg.sender] == Role.Manager,\r\n            \"Not authorized\"\r\n        );\r\n        _;\r\n    }\r\n\r\n    // Modifier to allow only the product owner to perform specific actions\r\n    modifier onlyProductOwner(bytes32 productHash) {\r\n        require(\r\n            productOwners[productHash] == msg.sender,\r\n            \"Not the owner of this product\"\r\n        );\r\n        _;\r\n    }\r\n\r\n    // Modifier to allow only users with the appropriate role\r\n    modifier onlyRole(Role role) {\r\n        require(userRoles[msg.sender] == role, \"Access denied\");\r\n        _;\r\n    }\r\n\r\n    // Function to add a product hash to the mapping\r\n    function addProductHash(bytes32 hash) public onlyOwner {\r\n        productHashes[hash] = true;\r\n        productOwners[hash] = msg.sender;\r\n        productAdditionTime[hash] = block.timestamp;\r\n        productHistory[hash].push(block.timestamp);\r\n        allProductHashes.push(hash);\r\n\r\n        emit ProductAdded(hash, msg.sender);\r\n    }\r\n\r\n    // Function to verify if a product hash exists in the mapping\r\n    function verifyProduct(bytes32 hash) public view returns (bool) {\r\n        return productHashes[hash];\r\n    }\r\n\r\n    // Bulk function to add multiple product hashes at once\r\n    function bulkAddHashes(bytes32[] memory hashes) public onlyOwner {\r\n        for (uint i = 0; i < hashes.length; i++) {\r\n            productHashes[hashes[i]] = true;\r\n            productOwners[hashes[i]] = msg.sender;\r\n            productAdditionTime[hashes[i]] = block.timestamp;\r\n            productHistory[hashes[i]].push(block.timestamp);\r\n            allProductHashes.push(hashes[i]);\r\n\r\n            emit ProductAdded(hashes[i], msg.sender);\r\n        }\r\n    }\r\n\r\n    // Function to assign roles to users\r\n    function assignRole(address user, Role role) public onlyOwner {\r\n        userRoles[user] = role;\r\n        emit RoleAssigned(user, role);\r\n    }\r\n\r\n    // Function to change product ownership\r\n    function transferProductOwnership(bytes32 productHash, address newOwner)\r\n        public\r\n        onlyProductOwner(productHash)\r\n    {\r\n        productOwners[productHash] = newOwner;\r\n    }\r\n\r\n    // Function to get the owner of a product by its hash\r\n    function getProductOwner(bytes32 productHash) public view returns (address) {\r\n        return productOwners[productHash];\r\n    }\r\n\r\n    // Function to get the addition timestamp of a product\r\n    function getProductAdditionTime(bytes32 productHash)\r\n        public\r\n        view\r\n        returns (uint256)\r\n    {\r\n        return productAdditionTime[productHash];\r\n    }\r\n\r\n    // Function to get the history of product additions (timestamps)\r\n    function getProductHistory(bytes32 productHash)\r\n        public\r\n        view\r\n        returns (uint256[] memory)\r\n    {\r\n        return productHistory[productHash];\r\n    }\r\n\r\n    // Function to allow product verification by the owner\r\n    function verifyProductOwnership(bytes32 productHash)\r\n        public\r\n        view\r\n        onlyProductOwner(productHash)\r\n        returns (bool)\r\n    {\r\n        return productHashes[productHash];\r\n    }\r\n\r\n    // Function to update the verification status of a product (only by owner)\r\n    function updateProductVerificationStatus(bytes32 productHash, bool status)\r\n        public\r\n        onlyOwner\r\n    {\r\n        productHashes[productHash] = status;\r\n        emit ProductVerified(productHash, status);\r\n    }\r\n\r\n    // Function to check if the caller is an admin\r\n    function isAdmin() public view returns (bool) {\r\n        return userRoles[msg.sender] == Role.Admin;\r\n    }\r\n\r\n    // Function to check if the caller is a manager\r\n    function isManager() public view returns (bool) {\r\n        return userRoles[msg.sender] == Role.Manager;\r\n    }\r\n\r\n    // Function to check if the caller is a regular user\r\n    function isUser() public view returns (bool) {\r\n        return userRoles[msg.sender] == Role.User;\r\n    }\r\n\r\n    // Function to get the role of a specific user\r\n    function getUserRole(address user) public view returns (Role) {\r\n        return userRoles[user];\r\n    }\r\n\r\n    // Function to remove a product from the tracking (only by the owner)\r\n    function removeProduct(bytes32 productHash) public onlyOwner {\r\n        delete productHashes[productHash];\r\n        delete productOwners[productHash];\r\n        delete productAdditionTime[productHash];\r\n        delete productHistory[productHash];\r\n\r\n        // Remove from allProductHashes array\r\n        for (uint256 i = 0; i < allProductHashes.length; i++) {\r\n            if (allProductHashes[i] == productHash) {\r\n                allProductHashes[i] = allProductHashes[allProductHashes.length - 1];\r\n                allProductHashes.pop();\r\n                break;\r\n            }\r\n        }\r\n\r\n        emit ProductVerified(productHash, false);\r\n    }\r\n\r\n    // Function to get all products for a specific user\r\n    function getAllProductsForUser(address user) public view returns (bytes32[] memory) {\r\n        uint256 productCount = 0;\r\n        // Count how many products belong to this user\r\n        for (uint i = 0; i < allProductHashes.length; i++) {\r\n            if (productOwners[allProductHashes[i]] == user) {\r\n                productCount++;\r\n            }\r\n        }\r\n\r\n        bytes32[] memory productsForUser = new bytes32[](productCount);\r\n        uint256 index = 0;\r\n        // Populate the array with the products owned by the user\r\n        for (uint i = 0; i < allProductHashes.length; i++) {\r\n            if (productOwners[allProductHashes[i]] == user) {\r\n                productsForUser[index] = allProductHashes[i];\r\n                index++;\r\n            }\r\n        }\r\n\r\n        return productsForUser;\r\n    }\r\n\r\n    // Function to view the number of products added\r\n    function getTotalProductCount() public view returns (uint256) {\r\n        return allProductHashes.length;\r\n    }\r\n\r\n    // Function to view all product hashes\r\n    function getAllProductHashes() public view returns (bytes32[] memory) {\r\n        return allProductHashes;\r\n    }\r\n}\r\n",
  "sourcePath": "E:\\BlockChain\\Product_Authenticator\\product-authenticator\\contracts\\ProductAuth.sol",
  "compiler": {
    "name": "solc",
    "version": "0.8.0+commit.c7dfd78e.Emscripten.clang"
  },
  "schemaVersion": "3.4.16",
  "updatedAt": "2025-04-24T06:19:37.590Z",
  "networkType": "ethereum",
  "devdoc": {
    "kind": "dev",
    "methods": {},
    "version": 1
  },
  "userdoc": {
    "kind": "user",
    "methods": {},
    "version": 1
  }
}